:020000040000FA
:100000000C9442010C9473010C9473010C947301D1
:100010000C9473010C9473010C9473010C94730190
:100020000C9473010C9473010C9473010C94730180
:100030000C9473010C94AB0A0C9473010C9473012F
:100040000C9473010C9473010C9473010C94730160
:100050000C9473010C9473010C9473010C946B0B4E
:100060000C9473010C94350B0C940B0B0C947301D2
:100070000C9473010C9473010C9473010C94730130
:100080000C9473010C9473010C9473010C94730120
:100090000C9473010C9473010C9473010C94730110
:1000A0000C9473010C9473010C9473010C94730100
:1000B0000C9473010C9473010C9473010C947301F0
:1000C0000C9473010C9473010C9473010C947301E0
:1000D0000C9473010C9473010C9473010C947301D0
:1000E0000C9473010C94E2020C94F0020C94F40250
:1000F0000C9407030C94C7020C94A2010C94DC022C
:100100000C94C5010C94A50A0C9450070C94FA02A7
:100110000C94B50B0C94BB060C9408030C940C03C4
:100120000C94D5020C94CD020C940B020C94750126
:100130000C9458070C94D1020C9458020C940203AE
:100140000C94FE020C94E6020C94D3010C94BA06B3
:100150000C94D9020C94EC020C9454070C94B10149
:1001600000002100240027002A002D003000330069
:1001700001010000040107010A0100002000230022
:10018000260029002C002F0032000001000003018E
:100190000601090100000A0B02090C0D0E080703F5
:1001A000040100000000000000000000000000004A
:1001B000000000000000000000000000000000003F
:1001C00012111000000000000000000000000000FC
:1001D00000000000000000000000010210202008C4
:1001E0000810204010204080020102010804020192
:1001F0000102040810204080804020100804020101
:100200008004020180402010080402010804020159
:1002100001020408102040800102040810204080E0
:1002200000002200250028002B002E0031003400A1
:1002300002010000050108010B0105050505070580
:1002400008080808020202020A0A08080404040452
:10025000010101010101010103030303030303037E
:10026000040707070C0C0C0C0C0C0C0C020202020D
:1002700006060606060606060B0B0B0B0B0B0B0BF6
:100280000200B50B11241FBECFEFD1E2DEBFCDBF00
:1002900000E00CBF13E0A0E0B2E0E8EFFEE100E018
:1002A0000BBF02C007900D92A431B107D9F724E02B
:1002B000A4E1B3E001C01D92A83DB207E1F711E04F
:1002C000C2E4D1E000E006C021970109802FFE01C1
:1002D0000E943C0FC134D10780E00807A9F70E94B3
:1002E000BA0C0C947A0F0C940000AF92BF92CF928C
:1002F000DF92EF92FF920F931F93CF93DF936C01E6
:100300007B018B01040F151FEB015E01AE18BF08C6
:10031000C017D10759F06991D601ED91FC91019078
:10032000F081E02DC6011995892B79F7C501DF9180
:10033000CF911F910F91FF90EF90DF90CF90BF90E2
:10034000AF900895FC01538D448D252F30E0842F0C
:1003500090E0821B930B541710F0CF9608950197ED
:100360000895FC01918D828D981761F0A28DAE0FDA
:10037000BF2FB11D5D968C91928D9F5F9F73928F61
:1003800090E008958FEF9FEF0895FC01918D828D8D
:10039000981731F0828DE80FF11D858D90E008955A
:1003A0008FEF9FEF0895FC01918D228D892F90E0B2
:1003B000805C9F4F821B91098F739927089585E474
:1003C00093E00E94D30121E0892B09F420E0822FE1
:1003D0000895FC01A48DA80FB92FB11DA35ABF4FDA
:1003E0002C91848D90E001968F739927848FA68934
:1003F000B7892C93A089B1898C91837080648C9388
:10040000938D848D981306C00288F389E02D808136
:100410008F7D80830895EF92FF920F931F93CF9368
:10042000DF93EC0181E0888F9B8D8C8D98131AC02F
:10043000E889F989808185FF15C09FB7F894EE8916
:10044000FF896083E889F989808183708064808373
:100450009FBF81E090E0DF91CF911F910F91FF90BE
:10046000EF900895F62E0B8D10E00F5F1F4F0F7366
:100470001127E02E8C8D8E110CC00FB607FCFACF21
:10048000E889F989808185FFF5CFCE010E94E901D5
:10049000F1CFEB8DEC0FFD2FF11DE35AFF4FF082F2
:1004A0009FB7F8940B8FEA89FB8980818062CFCF58
:1004B000CF93DF93EC01888D8823B9F0AA89BB899B
:1004C000E889F9898C9185FD03C0808186FD0DC086
:1004D0000FB607FCF7CF8C9185FFF2CF808185FFA7
:1004E000EDCFCE010E94E901E9CFDF91CF910895D0
:1004F00080E090E0892B29F00E94DF0181110E94A9
:10050000000080E090E0892B49F080E090E0892BAA
:1005100029F00E94000081110E94000080E090E01C
:10052000892B49F080E090E0892B29F00E9400009F
:1005300081110E94000080E090E0892B49F080E06A
:1005400090E0892B29F00E94000081110C9400009A
:1005500008958150823108F05AC0E82FF0E08827D2
:10056000EB54FD4F8F4F0C943C0FD502D902C702BC
:10057000CD02D1020703DC02E202E602EC02F00245
:10058000F402FA02FE020703020308030C0380913F
:1005900080008F77809380000895809180008F7D08
:1005A000F9CF80918000877FF5CF84B58F7784BDA8
:1005B000089584B58F7DFBCF8091B0008F778093B5
:1005C000B00008958091B0008F7DF9CF80919000A8
:1005D0008F77809390000895809190008F7DF9CF60
:1005E00080919000877FF5CF8091A0008F778093D6
:1005F000A00008958091A0008F7DF9CF8091A00088
:10060000877FF5CF809120018F7780932001089517
:10061000809120018F7DF9CF80912001877FF5CFD8
:10062000CF93DF93282F30E0F901EC56FE4F8491F1
:10063000F901E652FE4FD491F901E65CFD4FC491F9
:10064000CC23A1F081110E94A902EC2FF0E0EE0F63
:10065000FF1FE658FE4FA591B491EC91ED2381E088
:1006600090E009F480E0DF91CF91089580E090E080
:10067000FACF1F93CF93DF93282F30E0F901EC5688
:10068000FE4F8491F901E652FE4FD491F901E65CE8
:10069000FD4FC491CC23A9F0162F81110E94A9020D
:1006A000EC2FF0E0EE0FFF1FE05EFD4FA591B4913F
:1006B0008FB7F894EC91111108C0D095DE23DC932C
:1006C0008FBFDF91CF911F910895DE2BF8CF9091CE
:1006D000040289130DC0E0E8F2E0E4919FEF9093EB
:1006E0000402E230E1F038F4EE2381F0E13089F0E9
:1006F00060E00C943903E43049F110F1E530C1F7C2
:10070000909173009D7F90937300F2CF10926E00D2
:10071000EFCF90916F009D7F90936F00E9CF909104
:1007200070009D7F9093700091E09093B000909145
:10073000B100987F94609093B1001092B300D8CF2D
:10074000909171009D7F90937100D2CF9091720033
:100750009D7F90937200CCCFCF93DF9390E0FC010C
:10076000E652FE4F2491865C9D4FFC0184918823C4
:10077000C9F090E0880F991FFC01E05AFE4FA59147
:10078000B491FC01E05EFD4FC591D49161110DC0A3
:100790009FB7F8948C91209582238C93888128238D
:1007A00028839FBFDF91CF910895623051F49FB7A6
:1007B000F8943C91822F809583238C93E8812E2B93
:1007C000EFCF8FB7F894EC912E2B2C938FBFEACFFD
:1007D0008F929F92AF92BF92CF92DF92EF92FF9251
:1007E000CF936C01809104028D3269F08F3F09F440
:1007F00077C0CF91FF90EF90DF90CF90BF90AF90F8
:100800009F908F900895E0E8F2E0C491C7FDF1CF8A
:1008100061E08DE20E94AC03CC2319F0C23009F0F4
:10082000C8C1F12CE12C60E072E18AE790E0A701F9
:1008300096010E941D0F49015A01BA01A9014150B8
:100840005109610971094F3F51056105710509F0B1
:100850000CF494C160E472E48FE090E0A70196018B
:100860000E941D0FBA01A901415051096109710986
:10087000C23009F009C182E04F3F510561057105A1
:1008800009F00CF446C160E970ED83E090E0A70147
:1008900096010E941D0FBA01A90141505109610939
:1008A000710983E04F3F51056105710509F00CF4B2
:1008B00030C168E478EE81E090E0A70196010E94E3
:1008C0001D0FBA01A90141505109610971094F3F3A
:1008D00051056105710511F00CF02CC184E019C1BE
:1008E0008DE280930402E0E8F2E0C4918C2FCF3FC8
:1008F00009F47FCFC23009F468C060F4CC2379F1E9
:10090000C13009F444C087FD74CF61E08DE20E94DC
:10091000AC0384CFC43009F499C008F478C0C53062
:1009200091F710922001109221018091210188609D
:100930008093210180912101816080932101E7E66C
:10094000F2E0E491F0E0EE0FFF1FE05EFD4F8591D5
:100950009491E7E0F2E0E491E093250359CF14BCD1
:1009600015BC84B5826084BD85B5816085BDE7E630
:10097000F2E0E491F0E0EE0FFF1FE05EFD4F8591A5
:100980009491E7E0F2E0E491E0932C0341CF1092E0
:1009900080001092810080918100886080938100A6
:1009A00080918100816080938100E7E6F2E0E4912C
:1009B000F0E0EE0FFF1FE05EFD4F85919491E7E0C0
:1009C000F2E0E491E0932B0323CF1092B000109259
:1009D000B1008091B00082608093B0008091B1003E
:1009E00081608093B100E7E6F2E0E491F0E0EE0F81
:1009F000FF1FE05EFD4F8591949190932A038093B1
:100A00002903E7E0F2E0E491E093280301CF10929C
:100A100090001092910080919100886080939100E5
:100A200080919100816080939100E7E6F2E0E4918B
:100A3000F0E0EE0FFF1FE05EFD4F85919491E7E03F
:100A4000F2E0E491E0932703C3E0E2CE1092A0002D
:100A50001092A1008091A10088608093A1008091F4
:100A6000A10081608093A100E7E6F2E0E491F0E06C
:100A7000EE0FFF1FE05EFD4F85919491E7E0F2E0FD
:100A8000E491E0932603C4CE4F3F51056105710503
:100A900009F00CF48CC068E478EE81E090E0A701E6
:100AA00096010E941D0FBA01A90141505109610927
:100AB0007109CC2309F449C14F3F51056105710506
:100AC00009F00CF40BCF62E17AE780E090E0A70137
:100AD00096010E941D0FBA01A901415051096109F7
:100AE0007109CC2309F41AC186E04F3F5105610515
:100AF000710579F070F0B501A4019AE075956795DC
:100B0000579547959A95D1F7415051096109710957
:100B100087E09091B100987F892B8093B100C2301B
:100B200009F4E9C00CF0E0C0CC2379F1C13009F040
:100B300060CE6DC064E274EF80E090E0A7019601A2
:100B40000E941D0FBA01A9014150510961097109A3
:100B500085E04F3F510561057105D9F2D0F262E1A0
:100B60007AE780E090E0A70196010E941D0FBA018C
:100B7000A9014150510961097109B6CF81E0C11144
:100B8000C8CF95B5987F892B85BD47BD8FEF9FEF67
:100B9000DC018093410390934203A0934303B093FD
:100BA000440380916E00826080936E0022CE82E0CA
:100BB000E6CFF12CE12C60E072E18AE790E0A7013A
:100BC00096010E941D0FBA01A90141505109610906
:100BD000710991E04115510581E0680771057CF0CC
:100BE00068E478EE81E090E0A70196010E941D0F75
:100BF000BA01A901415051096109710993E0C1305D
:100C0000D9F480918100887F892B80938100509353
:100C10008900409388008FEF9FEFDC0180933D03B4
:100C200090933E03A0933F03B093400380916F00E5
:100C3000826080936F00DDCDC330D9F48091910044
:100C4000887F892B8093910050939900409398005E
:100C50008FEF9FEFDC018093350390933603A093D1
:100C60003703B093380380917100826080937100E4
:100C7000C0CDC430D9F48091A100887F892B8093A6
:100C8000A1005093A9004093A8008FEF9FEFDC01D3
:100C90008093310390933203A0933303B0933403D2
:100CA00080917200826080937200A3CDC53009F0FC
:100CB00036CF80912101887F892B80932101509329
:100CC0002901409328018FEF9FEFDC0180932D03D2
:100CD00090932E03A0932F03B09330038091730061
:100CE00082608093730085CDC43059F20CF4ACCF90
:100CF000C53029F37ECD4093B3008FEF9FEFDC0129
:100D00008093390390933A03A0933B03B0933C0341
:100D1000809170008260809370006BCD84E04F3FC3
:100D200051056105710509F008F42BCFB501A40147
:100D30008AE075956795579547958A95D1F7415003
:100D400051096109710985E01CCF83E04F3F5105CE
:100D50006105710509F00CF414CFB5CE2FB7F894E6
:100D60006091190370911A0380911B0390911C03E9
:100D70002FBF0895089590E080E00895CF93DF930A
:100D8000DC0126E0629FA00DB11D112490965C93BA
:100D90004E935F9721E091962C939197FC01E35934
:100DA000FF4F0190F081E02DEC01C459DF4F288105
:100DB000222341F0309719F0DC01662329F0DF91FE
:100DC000CF9108953097D9F35C968C91DF91CF91B4
:100DD0001994CF92DF92EF92FF920F931F93CF93CC
:100DE000DF93EC01162F042FFC0186E0689FE00DD5
:100DF000F11D112411A2878D90A18130910509F177
:100E000080F08230910509F443C0039709F445C08E
:100E1000DF91CF911F910F91FF90EF90DF90CF90D6
:100E200008954423A9F341E050E0CE010E94BE069C
:100E30000E94AE06C85ADF4F688379838A839B83FA
:100E4000E7CF0E94AE06FE01E85AFF4FC080D18076
:100E5000E280F380AB01BC014C195D096E097F098A
:100E6000729680819181B0E0A0E084179507A60773
:100E7000B70770F442E050E0612FCE01DF91CF91CF
:100E80001F910F91FF90EF90DF90CF900C94BE06D2
:100E900043E050E00111BCCFEFCF50E040E0ECCF99
:100EA000862F642F0C94AC03862F642F0C94390387
:100EB000862F0C9410032F923F924F925F926F9265
:100EC0007F928F929F92AF92BF92CF92DF92EF92DA
:100ED000FF920F931F93CF93DF93CDB7DEB72C977D
:100EE0000FB6F894DEBF0FBECDBF9C878B878459A9
:100EF0009F4F9A83898381E0A981BA818C930E9454
:100F0000AE06EB85FC85E45AFF4FFC83EB83008142
:100F1000118122813381AB01BC01401B510B620B5B
:100F2000730BEB85FC85E859FF4F80819181B0E020
:100F3000A0E084179507A607B70708F04FC110E097
:100F4000CB84DC84F6E6CF0ED11CEB84FC8422E655
:100F5000E20EF11CD6018C91181758F4D701ED91CF
:100F6000FC91E10FF11D62E080810E94AC031F5FE4
:100F7000F1CF312C4B845C84B7E64B0E511CEB84D3
:100F8000FC84E4E6EE0EF11C812C912C5401839438
:100F90002B853C852E593F4F3A872987D2018C916A
:100FA000381608F063C0032D10E0D701ED91FC91D5
:100FB000E00FF11F61E080810E94AC03D701ED9149
:100FC000FC91E00FF11F60E080810E943903D501A0
:100FD000C401032C04C0880F991FAA1FBB1F0A94C9
:100FE000D2F79E838D83FC01E095F095F887EF831F
:100FF000212CD6018C91281620F5622C712CA98504
:10100000BA85ED91FC91E60DF71D80810E941003D9
:10101000660C771CEB85FC85E60DF71D892B51F4DA
:10102000808591852D813E81822B932B91878087AE
:101030002394DFCF80859185AF81B8858A239B2358
:10104000F5CFD701ED91FC91E00FF11F61E08081B8
:101050000E943903F70180819181080F191F60E018
:10106000D8018C910E94AC03339498CF0B851C85DA
:10107000C801CC9678012FEF3FEFF701478D50A1C3
:10108000452B21F4148E368F258F11A2F6E0EF0E3A
:10109000F11CE816F90689F7A12C8B849C8420E6C4
:1010A000820E911C96E0392ED6018C91A81608F07C
:1010B00058C0B12C6A2C712CB4E06B0E711C660CFC
:1010C000771CEB85FC856E0E7F1ED2018C91B816C5
:1010D00008F045C0F301408151810B2C02C05695A8
:1010E00047950A94E2F7A89EC00111248B0D911D2B
:1010F000EB85FC8560E0258D368D8217930709F41A
:1011000072C06F5F36966A30B1F740FF26C0EB853C
:10111000FC8570E060E0248D211119C0D401ED91AF
:10112000FC91E80FF91F4081369EF001379EF00DCB
:1011300011242B853C85E20FF31F448F968F858FFA
:1011400010A2178E41E0C9010E94E90606C06F5F38
:101150007F4F36966A307105F1F6B394B6CFA394FB
:10116000A3CFD12CD80191968C918111D82E0A5FF2
:101170001F4FE016F106B1F70E94AE06EB81FC812D
:101180006083718382839383DD2041F1AB85BC85CD
:1011900091968C919197882309F15F968D919C91FE
:1011A00090970197D9F45C968C912C960FB6F89491
:1011B000DEBF0FBECDBFDF91CF911F910F91FF908A
:1011C000EF90DF90CF90BF90AF909F908F907F90E7
:1011D0006F905F904F903F902F900895E981FA8132
:1011E000108280E0E2CF41708B859C85ADCFCF939C
:1011F000DF938F3F980771F19C0197FF02C02D5F2D
:101200003F4F462F359527953595279564E070E03B
:101210000E94090F220F331FEC01CC0FDD1F442366
:1012200079F02E5B3D4F60E0F90180810E94390327
:10123000C65CDD4F61E08881DF91CF910C9439036A
:101240002E5A3D4F60E0F90180810E943903C65B50
:10125000DD4FF0CFDF91CF910895FB010190002089
:10126000E9F73197AF01461B570BDC01ED91FC917B
:101270000280F381E02D1994CF93DF93682F85E4EA
:1012800093E00E940B02EC0142E050E06CEC72E053
:1012900085E493E00E9475018C0F9D1FDF91CF9133
:1012A0000895CF93DF93EC0160E08E810E943903B3
:1012B00061E08E810E94390360E08E810E943903D3
:1012C0008BE891E00197F1F7DF91CF910895CF92EC
:1012D000DF92EF92FF920F931F93CF93DF936C01F6
:1012E0007C0187E0E80EF11CD0E0C0E0062F10E0A2
:1012F000B8010C2E02C0759567950A94E2F76170EB
:10130000F70181917F010E9439032196C430D105F4
:1013100079F7C601DF91CF911F910F91FF90EF9068
:10132000DF90CF900C945109CF92DF92EF92FF9211
:101330000F931F93CF93DF93EC01F62E642F8C81D4
:101340000E9439038D818F3F19F060E00E943903BC
:101350000F2D10E08F8584FF25C06E0187E0C80E39
:10136000D11CF12CE12CB8010E2C02C075956795AB
:101370000A94E2F76170F60181916F010E943903CE
:10138000FFEFEF1AFF0A88E0E816F10461F7CE01DB
:10139000DF91CF911F910F91FF90EF90DF90CF9051
:1013A0000C945109B80184E0759567958A95E1F729
:1013B000CE010E9467096F2DCE01DF91CF911F9161
:1013C0000F91FF90EF90DF90CF900C94670940E071
:1013D00061E080EC94E00E9494098BE39FE1019727
:1013E000F1F70895CF93DF93823029F49091CF04E1
:1013F00098609093CF048093D3041092D40480E437
:101400008093D50480E18093D60480E58093D7044F
:1014100061E08091C4040E94AC038091C5048F3FB9
:1014200019F061E00E94AC0361E08091C6040E9463
:10143000AC03C0ECD4E09E01205C34408091CF042A
:1014400084FD0BC084E090E021962817390744F40E
:1014500061E08E810E94AC03EECF88E090E0F4CF93
:101460008BE39DE00197F1F760E08091C4040E9456
:10147000390360E08091C6040E9439038091C5045D
:101480008F3F19F060E00E9439036091CF0464FD42
:101490003DC063E080EC94E00E946709CBE4D6E4B1
:1014A000CE010197F1F763E080EC94E00E946709B8
:1014B0002197F1F763E080EC94E00E94670983E5EF
:1014C00092E00197F1F762E080EC94E00E946709F6
:1014D0006091CF04606240E080EC94E00E94940947
:1014E00084E08093D00440E06CE080EC94E00E94C3
:1014F00094090E94E70982E08093D10440E066E00D
:1015000080EC94E0DF91CF910C949409606240E00C
:1015100080EC94E00E9494098BE496E40197F1F743
:101520006091CF04606240E080EC94E00E949409F6
:1015300083E592E00197F1F76091CF04606240E0AB
:1015400080EC94E00E949409C3CF41E00E9494098A
:1015500081E090E008951F920F920FB60F92112430
:101560000BB60F922F933F934F935F936F937F939D
:101570008F939F93AF93BF93EF93FF938091390322
:1015800090913A03A0913B03B0913C03892B8A2BA5
:101590008B2BE1F190912803E0912903F0912A032C
:1015A0008081892780838091390390913A03A091AB
:1015B0003B03B0913C03181619061A061B069CF44F
:1015C0008091390390913A03A0913B03B0913C0381
:1015D0000197A109B1098093390390933A03A0932D
:1015E0003B03B0933C03FF91EF91BF91AF919F916B
:1015F0008F917F916F915F914F913F912F910F90BC
:101600000BBE0F900FBE0F901F9018958091040293
:101610000E946703E8CF1F920F920FB60F9211241A
:101620000BB60F922F933F934F935F936F937F93DC
:101630008F939F93AF93BF93EF93FF9385E493E0D2
:101640000E94E901FF91EF91BF91AF919F918F911E
:101650007F916F915F914F913F912F910F900BBEB2
:101660000F900FBE0F901F9018951F920F920FB6FC
:101670000F9211240BB60F922F938F939F93EF939A
:10168000FF93E0915503F09156038081E0915B0355
:10169000F0915C0382FD1DC0908180915E038F5F9D
:1016A0008F7320915F03821741F0E0915E03F0E0B9
:1016B000EB5BFC4F958F80935E03FF91EF919F91C1
:1016C0008F912F910F900BBE0F900FBE0F901F9018
:1016D00018958081F2CF1F920F920FB60F921124AE
:1016E0002F933F938F939F93AF93BF938091190351
:1016F00090911A03A0911B03B0911C033091180321
:1017000023E0230F2D3758F50196A11DB11D20931D
:1017100018038093190390931A03A0931B03B093AB
:101720001C038091140390911503A0911603B091AE
:1017300017030196A11DB11D809314039093150307
:10174000A0931603B0931703BF91AF919F918F9110
:101750003F912F910F900FBE0F901F90189526E884
:10176000230F0296A11DB11DD2CF109248031092F3
:10177000470388EE93E0A0E0B0E0809349039093A4
:101780004A03A0934B03B0934C0388EA92E09093F2
:1017900046038093450385EC90E090935203809339
:1017A000510384EC90E0909354038093530380ECB6
:1017B00090E0909356038093550381EC90E09093D2
:1017C00058038093570382EC90E090935A038093E0
:1017D000590386EC90E090935C0380935B03109236
:1017E0005E0310925F0310926003109261031092E7
:1017F000C3041092C20484EC92E09093C1048093DD
:10180000C0048BE28093C4048FEF8093C50489E207
:101810008093C60487E28093C70485E28093C8045E
:1018200083E28093C90481E28093CA041092CB04BE
:101830001092CC041092CD041092CE041092CF04DA
:1018400081E00E94F2091092530410925704109202
:101850005604109258048AEB92E0909352048093BD
:101860005104EDE6F4E0108214821382158236965C
:1018700084E0E93AF807B9F786E292E09093B4047D
:101880008093B30482E292E09093B6048093B5040F
:1018900084E08093B7048093B8048AE292E0909346
:1018A000B2048093B1048AE090E09093BA048093EC
:1018B000B90484EF91E09093BC048093BB04109230
:1018C000BF041092BE041092AD041092AE041092A8
:1018D000AF041092B0041092BD041092E403109271
:1018E000E8031092E7031092E9038AEB92E09093E9
:1018F000E3038093E203EEEFF3E08AE394E01082E7
:1019000014821382158236968E179F07C1F789E0DD
:1019100092E0909345048093440485E092E0909394
:1019200047048093460485E08093480484E08093D4
:1019300049048EE092E090934304809342048AE04D
:1019400090E090934B0480934A0484EF91E090934D
:101950004D0480934C041092500410924F04109246
:101960003E0410923F0410924004109241041092E1
:101970004E040895789484B5826084BD84B58160F6
:1019800084BD85B5826085BD85B5816085BD80914A
:101990006E00816080936E001092810080918100C2
:1019A00082608093810080918100816080938100BA
:1019B000809180008160809380008091B10084607C
:1019C0008093B1008091B00081608093B0008091DD
:1019D000910082608093910080919100816080935A
:1019E0009100809190008160809390008091A1008F
:1019F00082608093A1008091A10081608093A1000A
:101A00008091A00081608093A0008091210182607C
:101A10008093210180912101816080932101809137
:101A2000200181608093200180917A0084608093FE
:101A30007A0080917A00826080937A0080917A00A7
:101A4000816080937A0080917A00806880937A0028
:101A50001092C10082E00E94F2096FEC72E080EC0B
:101A600094E00E942D09C2E4D2E00AE312E0E8808B
:101A7000229661E08E2D0E94AC03F801F0800E5F8B
:101A80001F4F61E08F2D0E94AC0360E08E2D0E94FD
:101A9000390361E08F2D0E943903F2E0CA34DF0779
:101AA00031F7C2E5D2E01881229661E0812F0E94D1
:101AB000AC0360E0812F0E94390322E0CC35D207CD
:101AC00091F7CAE4D2E0F2E5EF2EF2E0FF2E1881A2
:101AD000229661E0812F0E94AC0361E0812F0E9479
:101AE0003903EC16FD0699F761E08DE20E94AC0324
:101AF000E0915503F091560382E08083E091510319
:101B0000F09152031082E0915303F09154038FEC53
:101B1000808310925D03E0915903F0915A0386E0AF
:101B20008083E0915703F091580380818061808326
:101B3000E0915703F0915803808188608083E091A1
:101B40005703F0915803808180688083E0915703A8
:101B5000F091580380818F7D8083E4E0EE2EF12C9C
:101B60000FEF1FEF81E594E00E945B07C82E82EE25
:101B700093E00E945B07D82ECC20B1F065ED72E0B7
:101B800085E493E00E942D098C2D0E943C09D0E051
:101B9000C0E0FE01E65DFD4F8081C81609F4F5C086
:101BA0002196C031D105A9F7DD20B1F064EF72E0D4
:101BB00085E493E00E942D098D2D0E943C09D0E020
:101BC000C0E0FE01E25FFD4F8081D81609F4FFC03E
:101BD0002196C431D105A9F7C0910202D091030228
:101BE000CF3FDC07F1F00E94AE0680902103909079
:101BF0002203A0902303B0902403681979098A096D
:101C00009B09683873418105910558F061E0CE0168
:101C10000E94F7088DE20E9467031093030200936D
:101C20000202C0910002D0910102CF3FDC07F1F027
:101C30000E94AE0680901D0390901E03A0901F038B
:101C4000B0902003681979098A099B0968387341A3
:101C50008105910558F060E0CE010E94F7088DE201
:101C60000E94670310930102009300020E94780211
:101C700079CF80910002909101028F3F980751F037
:101C800060E00E94F7088DE20E9467031093010252
:101C90000093000261E0C5010E94F708D09303029F
:101CA000C0930202FE01F695E795F695E795EE0FD3
:101CB000FF1FEE5BFD4F61E080810E943903CE0182
:101CC000B7010E94090FFC01EE0FFF1FE65CFD4FFC
:101CD00060E080810E943903CC0FDD1FC45ADD4FC4
:101CE000888199810E94E8030E94AE0660932103D7
:101CF00070932203809323039093240359C080910F
:101D00000202909103028F3F980751F061E00E9418
:101D1000F7088DE20E94670310930302009302020A
:101D200060E0C5010E94F708D0930102C093000251
:101D3000FE01F695E795F695E795EE0FFF1FEE5A33
:101D4000FD4F61E080810E943903CE01B7010E94FE
:101D5000090FFC01EE0FFF1FE65BFD4F60E0808185
:101D60000E943903CC0FDD1FC458DD4F8881998153
:101D70000E94E8030E94AE0660931D0370931E0349
:101D800080931F039093200335C0A0900202B0906F
:101D90000302AC16BD0609F06CCF61E0CE010E94D3
:101DA000F7088DE20E94670310930302009302027A
:101DB0000E94E7096AEE72E080EC94E00E942D092F
:101DC00041E06C2D80EC94E00E949409EDCEA0904F
:101DD0000002B0900102CA15DB0509F090CF60E067
:101DE000CE010E94F7088DE20E9467031093010262
:101DF000009300020E94E70969E073E080EC94E040
:101E00000E942D0941E06D2D80EC94E00E94940920
:101E1000E3CE97FB072E16F4009407D077FD09D088
:101E20000E94440F07FC05D03EF4909581959F4F8A
:101E30000895709561957F4F0895052E97FB1EF4C8
:101E400000940E94340F57FD07D00E94580F07FCE2
:101E500003D04EF40C94340F509540953095219555
:101E60003F4F4F4F5F4F08959095809570956195C6
:101E70007F4F8F4F9F4F0895EE0FFF1F881F8BBF1F
:101E80000790F691E02D1994AA1BBB1B51E107C0E6
:101E9000AA1FBB1FA617B70710F0A61BB70B881FFA
:101EA000991F5A95A9F780959095BC01CD01089589
:101EB000A1E21A2EAA1BBB1BFD010DC0AA1FBB1F4E
:101EC000EE1FFF1FA217B307E407F50720F0A21BC0
:101ED000B30BE40BF50B661F771F881F991F1A942D
:101EE00069F760957095809590959B01AC01BD0157
:101EF000CF010895F894FFCFFFFFFFFFFF3637387B
:101F0000393A3B3C3D3E48494A4B4C4D4E4F50516F
:101F100052535455565758595A300D0C0B0A09084C
:101F20000706313233343536373839414243444578
:101F300046470500040003000200170019001B00BB
:101F40001D003F00400041004200430044004500A6
:101F500035003300060126014A015D018801B80100
:101F6000EE010B024B029302BA0210037003DC0372
:101F700017049704270575052006E006B8072D0805
:101F80002D094D0AEA0A400CC00D6F0F5A105A1263
:101F90009A14D4158018801BDE1EB42000000000A7
:101FA0000B027501A2015802D301B101C501000065
:101FB000000050075407580700000000A50A7501EB
:101FC000BB06BA060D0A00526561647900347834A4
:101FD000204B657970616420707265737365643A33
:101FE0002000347834204B65793A2000347835204D
:101FF0004B657970616420707265737365643A2013
:0C20000000347835204B65793A20000050
:020000040003F7
:10E000000D9489F10D94B2F10D94B2F10D94B2F129
:10E010000D94B2F10D94B2F10D94B2F10D94B2F1F0
:10E020000D94B2F10D94B2F10D94B2F10D94B2F1E0
:10E030000D94B2F10D94B2F10D94B2F10D94B2F1D0
:10E040000D94B2F10D94B2F10D94B2F10D94B2F1C0
:10E050000D94B2F10D94B2F10D94B2F10D94B2F1B0
:10E060000D94B2F10D94B2F10D94B2F10D94B2F1A0
:10E070000D94B2F10D94B2F10D94B2F10D94B2F190
:10E080000D94B2F10D94B2F10D94B2F10D94B2F180
:10E090000D94B2F10D94B2F10D94B2F10D94B2F170
:10E0A0000D94B2F10D94B2F10D94B2F10D94B2F160
:10E0B0000D94B2F10D94B2F10D94B2F10D94B2F150
:10E0C0000D94B2F10D94B2F10D94B2F10D94B2F140
:10E0D0000D94B2F10D94B2F10D94B2F10D94B2F130
:10E0E0000D94B2F141546D656761323536300041AF
:10E0F000726475696E6F206578706C6F72657220DE
:10E1000073746B3530305632206279204D4C530099
:10E11000426F6F746C6F616465723E004875683F52
:10E1200000436F6D70696C6564206F6E203D200048
:10E130004350552054797065202020203D20005FF9
:10E140005F4156525F415243485F5F3D2000415658
:10E1500052204C696243205665723D20004743437C
:10E160002056657273696F6E203D20004350552024
:10E1700049442020202020203D20004C6F7720663D
:10E18000757365202020203D20004869676820665F
:10E190007573652020203D200045787420667573D6
:10E1A00065202020203D20004C6F636B2066757336
:10E1B000652020203D20004D617220203720323024
:10E1C000313300312E362E3800342E332E350056A2
:10E1D00023202020414444522020206F7020636F70
:10E1E00064652020202020696E73747275637469E1
:10E1F0006F6E2061646472202020496E74657272B3
:10E20000757074006E6F20766563746F7200726A49
:10E210006D702020006A6D70200057686174207056
:10E220006F72743A00506F7274206E6F7420737541
:10E2300070706F72746564004D7573742062652030
:10E2400061206C6574746572002000577269747483
:10E25000696E672045450052656164696E672045B7
:10E26000450045452065727220636E743D00504F35
:10E27000525400303D5A65726F2061646472003FF1
:10E280003D43505520737461747300403D454550C3
:10E29000524F4D207465737400423D426C696E6B41
:10E2A000204C454400453D44756D70204545505215
:10E2B0004F4D00463D44756D7020464C415348001B
:10E2C000483D48656C70004C3D4C69737420492F83
:10E2D0004F20506F72747300513D51756974005234
:10E2E0003D44756D702052414D00563D73686F7707
:10E2F00020696E7465727275707420566563746FF0
:10E30000727300593D506F727420626C696E6B00BD
:10E310002A0011241FBECFEFD1E2DEBFCDBF01E046
:10E320000CBF12E0A0E0B2E0EEE1FDEF03E00BBFB6
:10E3300002C007900D92A030B107D9F712E0A0E01B
:10E34000B2E001C01D92AE30B107E1F70F9460F367
:10E350000D948DFE01E20EBF0FEF0DBF11241FBE05
:10E360000D9460F30D9400F020E030E040ED57E0B4
:10E3700005C0FA013197F1F72F5F3F4F2817390792
:10E38000C0F308959C01260F311DC901A0E0B0E043
:10E390002F5F3F4FABBFFC018791882361F08093D3
:10E3A000C6008091C00086FFFCCF8091C0008064D1
:10E3B0008093C000EACF08958DE08093C6008091DD
:10E3C000C00086FFFCCF8091C00080648093C000B5
:10E3D0008AE08093C6008091C00086FFFCCF8091C8
:10E3E000C00080648093C00008950F94C2F10F9420
:10E3F000DCF10895FC019081992359F09093C600B7
:10E400008091C00086FFFCCF8091C0008064809323
:10E41000C0003196992379F70895282F982F929567
:10E420009F70892F805D8A3308F0895F8093C600D2
:10E430008091C00086FFFCCF8091C00080648093F3
:10E44000C000822F8F70982F905D9A3308F0995FEB
:10E450009093C6008091C00086FFFCCF8091C000E1
:10E4600080648093C00008959C01FB01853691056E
:10E470001CF46330710594F0C90164E670E00F94F8
:10E480002EFE605D7F4F6093C6008091C00086FFC6
:10E49000FCCF8091C00080648093C0002B30310598
:10E4A00014F43297B4F0C90164E670E00F942EFEC4
:10E4B0006AE070E00F942EFE605D7F4F6093C600AF
:10E4C0008091C00086FFFCCF8091C0008064809363
:10E4D000C000C9016AE070E00F942EFEC0968093E0
:10E4E000C6008091C00086FFFCCF8091C000806490
:10E4F0008093C00008951F93182F8EE692EE60E07F
:10E500000F94C2F11093C6008091C00086FFFCCF2B
:10E510008091C00080648093C0000F94DCF11F9153
:10E5200008952F923F924F925F926F927F928F92B7
:10E530009F92AF92BF92CF92DF92EF92FF920F9392
:10E540001F93DF93CF93CDB7DEB762970FB6F894E2
:10E55000DEBF0FBECDBF382E622ECA01DB015C01CB
:10E560006D01772420E2222E2E010894411C511CBB
:10E570008BC081E0A81680E0B80681E0C80680E084
:10E58000D80628F0C601AA27BB270F940DF2BB2797
:10E59000AD2D9C2D8B2D0F940DF28A2D0F940DF225
:10E5A0002092C6008091C00086FFFCCF8091C00001
:10E5B00080648093C0009DE29093C6008091C0006B
:10E5C00086FFFCCF8091C00080648093C0002092C1
:10E5D000C6008091C00086FFFCCF8091C00080649F
:10E5E0008093C00019828601750188249924A1E0D6
:10E5F0003A1651F03A1620F0B2E03B1661F409C029
:10E600000BBFF701779007C0C7010F9477FE782EF4
:10E6100002C0F7017080872D0F940DF22092C60082
:10E620008091C00086FFFCCF8091C0008064809301
:10E63000C000872D8052F401EF70F0708F3520F408
:10E64000E40DF51D708204C0E40DF51D8EE280839B
:10E650000894E11CF11C011D111D0894811C911CE2
:10E6600090E18916910409F0C2CF80E190E0A0E02A
:10E67000B0E0A80EB91ECA1EDB1E198AC2010F9493
:10E68000FAF10F94DCF16A94662009F072CF629679
:10E690000FB6F894DEBF0FBECDBFCF91DF911F91B3
:10E6A0000F91FF90EF90DF90CF90BF90AF909F9031
:10E6B0008F907F906F905F904F903F902F90089534
:10E6C0002F923F924F925F926F927F928F929F9282
:10E6D000AF92BF92CF92DF92EF92FF920F931F9370
:10E6E000DF93CF93CDB7DEB7CD53D1400FB6F894BB
:10E6F000DEBF0FBECDBF01E20EBF0FEF0DBF94B75F
:10E70000F894A89514BE80916000886180936000A1
:10E7100010926000789493FF05C0E0910002F091A0
:10E7200001021995279A2F9A8091C00082608093E8
:10E73000C00080E18093C40088E18093C1000000A4
:10E74000EE24FF24870144E0A42EB12CCC24DD2448
:10E7500024C0C5010197F1F70894E11CF11C011DCB
:10E76000111D21E2E2162EE4F20620E0020720E06D
:10E77000120718F031E0C32ED12CC801B70127ECE5
:10E780003BE140E050E00F9441FE611571058105C9
:10E79000910519F485B1805885B98091C00087FD35
:10E7A00003C0C114D104A9F2A6014F5F5F4FC25E3E
:10E7B000DE4F59834883CE51D140C25EDE4F8881FF
:10E7C0009981CE51D140019711F00D9410FEC05D9A
:10E7D000DE4F19821882C053D14060E0C15DDE4F28
:10E7E0001882CF52D14088249924C35DDE4F19820C
:10E7F0001882CD52D140C05EDE4F188219821A8233
:10E800001B82C052D140CE5CDE4F188219821A8220
:10E810001B82C253D140EE24FF2487010BBFF701B6
:10E8200007911691C45CDE4F19830883CC53D14005
:10E830000D940BFEC25EDE4F28813981CE51D1404E
:10E840002130310509F52091C600C25EDE4F1982E4
:10E850001882CE51D14022C02F5F3F4F4F4F5F4FA4
:10E86000213082E138078AE7480780E0580780F0C6
:10E87000C45CDE4FE881F981CC53D140EF5FFF4F9C
:10E8800019F0EE27FF27099420E030E040E050E047
:10E890008091C00087FFE0CF2091C600C35DDE4FAE
:10E8A00048815981CD52D1404F5F5F4FC35DDE4FEC
:10E8B00059834883CD52D140213209F063C64A3092
:10E8C000510508F05FC60894811C911C53E0851621
:10E8D000910409F059C600E010E018C081E280936D
:10E8E000C6008091C00086FFFCCF8091C00080648C
:10E8F0008093C0002F5F3F4F2931310579F70F9486
:10E90000DCF10F5F1F4F0530110519F020E030E0FA
:10E91000E5CF10920A0210920B0210920C02109294
:10E920000D02109206021092070210920802109235
:10E930000902109202021092030210920402109235
:10E9400005028FEE90EE60E00F94F5F180E191EE1C
:10E9500060E00F94C2F18091C00087FFFCCF9091DE
:10E96000C600903608F09F759032B8F09093C600BC
:10E970008091C00086FFFCCF8091C00080648093AE
:10E98000C000A0E2A093C6008091C00086FFFCCF2B
:10E990008091C00080648093C000983409F4D7C18E
:10E9A0009934B8F4923409F459C1933458F490333B
:10E9B00019F1903308F4E3C59F33A1F1903409F0C5
:10E9C000DEC5BDC0953409F470C1963409F0D7C5D1
:10E9D00098C1923509F42BC2933538F49C3409F46C
:10E9E000F5C1913509F0CBC518C2963509F445C279
:10E9F000993509F0C4C567C483E792EE62E00F94CD
:10EA0000F5F110920602109207021092080210927D
:10EA1000090210920A0210920B0210920C0210923C
:10EA20000D0213C18FE792EE62E00F94F5F18FEEC5
:10EA300090EE60E00F94F5F181E291EE60E00F94CA
:10EA4000C2F187EB91EE60E00F94F5F180E391EE77
:10EA500060E00F94C2F184EE90EE60E00F94F5F167
:10EA60008FE391EE60E00F94C2F186E090E061E008
:10EA700070E00F9434F20F94DCF18DE591EE60E0DC
:10EA80000F94C2F189EC91EE60E00F94F5F18EE401
:10EA900091EE60E00F94C2F183EC91EE60E00F9490
:10EAA000F5F18CE691EE60E00F94C2F18EE10F94E7
:10EAB0000DF288E90F940DF281E00F940DF20F949E
:10EAC000DCF18BE791EE60E00F94C2F119E0E0E039
:10EAD000F0E010935700E4918E2F0F940DF20F94F5
:10EAE000DCF18AE891EE60E00F94C2F1E3E0F0E03F
:10EAF00010935700E4918E2F0F940DF20F94DCF1D8
:10EB000089E991EE60E00F94C2F1E2E0F0E0109349
:10EB10005700E4918E2F0F940DF20F94DCF188EAE8
:10EB200091EE60E00F94C2F1E1E0F0E01093570045
:10EB30001491812F0F940DF20F94DCF107CF8BE825
:10EB400092EE62E00F94F5F18BE492EE60E00F94A8
:10EB5000F5F10F94DCF100E010E019C0C8016F2D51
:10EB60000F947FFEFF2031F489E492EE60E00F9471
:10EB7000C2F10BC0F092C6008091C00086FFFCCFAE
:10EB80008091C00080648093C0000F5F1F4FC80158
:10EB900081519F41A0E0B0E0ABBFFC01F790BAE229
:10EBA000FB1621F0E2E000301E07C1F60F94DCF105
:10EBB0000F94DCF187E592EE60E00F94F5F10F948D
:10EBC000DCF1CC24DD2400E010E01EC0C8010F946D
:10EBD00077FEF82E882331F489E492EE60E00F94FA
:10EBE000C2F10BC08093C6008091C00086FFFCCFAD
:10EBF0008091C00080648093C000FE1419F00894D6
:10EC0000C11CD11C0F5F1F4FC80181519F41A0E063
:10EC1000B0E0ABBFFC01E790FAE2EF1621F022E092
:10EC20000030120799F60F94DCF10F94DCF182E6C4
:10EC300092EE60E00F94C2F1C60161E070E00F94C3
:10EC400034F20F94DCF10F94DCF110920202109276
:10EC50000302109204021092050278CE89E992EE26
:10EC600062E00F94F5F1279A2F9A16C02F9880E052
:10EC700090E0E0EDF7E03197F1F7019684369105E9
:10EC8000C1F72F9A80E090E0E0EDF7E03197F1F7DF
:10EC9000019684369105C1F78091C00087FFE6CFC9
:10ECA0008091C00087FFFCCF64C485EA92EE62E0E9
:10ECB0000F94F5F140910202509103026091040219
:10ECC0007091050281E020E10F9491F2809102029F
:10ECD00090910302A0910402B091050280509F4FD1
:10ECE000AF4FBF4F8093020290930302A0930402A0
:10ECF000B093050280509041A040B04008F426CE69
:10ED0000A4CF83EB92EE62E00F94F5F140910602FE
:10ED100050910702609108027091090280E020E1A1
:10ED20000F9491F28091060290910702A09108023F
:10ED3000B091090280509F4FAF4FBF4F80930602A2
:10ED400090930702A0930802B0930902FFCD80ECD4
:10ED500092EE62E00F94F5F183E792EE60E00F949B
:10ED6000F5F18FE792EE60E00F94F5F18BE892EE0B
:10ED700060E00F94F5F189E992EE60E00F94F5F10F
:10ED800085EA92EE60E00F94F5F183EB92EE60E09D
:10ED90000F94F5F180EC92EE60E00F94F5F187ECC2
:10EDA00092EE60E00F94F5F188ED92EE60E00F9442
:10EDB000F5F18FED92EE60E00F94F5F18AEE92EEB0
:10EDC00060E00F94F5F183E093EEBDCD87EC92EE19
:10EDD00062E00F94F5F181E40F947BF282E40F94EA
:10EDE0007BF283E40F947BF284E40F947BF285E45E
:10EDF0000F947BF286E40F947BF287E40F947BF20E
:10EE000088E40F947BF28AE40F947BF28BE40F94F6
:10EE10007BF28CE40F947BF299CD88ED92EE62E068
:10EE20000F94F5F1772473948824992409C48FED05
:10EE300092EE62E00F94F5F140910A0250910B02BC
:10EE400060910C0270910D0282E020E10F9491F22A
:10EE500080910A0290910B02A0910C02B0910D02D8
:10EE600080509F4FAF4FBF4F80930A0290930B0289
:10EE7000A0930C02B0930D0269CD8AEE92EE62E08F
:10EE80000F94F5F184EE90EE60E00F94F5F18FECC5
:10EE900091EE60E00F94F5F1662477244301CC5D98
:10EEA000DE4F19821882C452D140D401C301B695F5
:10EEB000A79597958795CA5DDE4F88839983AA8326
:10EEC000BB83C652D140CC5DDE4FA881B981C4520C
:10EED000D1401196CC5DDE4FB983A883C452D14096
:10EEE000CD0162E070E00F9434F2B0E2B093C6005E
:10EEF0008091C00086FFFCCF8091C0008064809329
:10EF0000C000EDE2E093C6008091C00086FFFCCF18
:10EF10008091C00080648093C000F0E2F093C6004E
:10EF20008091C00086FFFCCF8091C00080648093F8
:10EF3000C000CA5DDE4FE880F9800A811B81C6529D
:10EF4000D140BB27A12F902F8F2D0F940DF2CA5DBA
:10EF5000DE4F8881C652D1400F940DF2B0E2FB2EF5
:10EF6000F092C6008091C00086FFFCCF8091C00067
:10EF700080648093C0000DE30093C6008091C000C0
:10EF800086FFFCCF8091C00080648093C00010E2B7
:10EF90001093C6008091C00086FFFCCF8091C00016
:10EFA00080648093C0008BBEF3012791C65DDE4F65
:10EFB0002883CA52D140A22EBB24CC24DD2408943D
:10EFC000611C711C811C911C8BBEF3018791282E42
:10EFD0003324442455240894611C711C811C911C09
:10EFE0008BBEF3013791C55DDE4F3883CB52D140E4
:10EFF0000894611C711C811C911C8BBEF30147910C
:10F00000C45DDE4F4883CC52D140ADEFEA2EAFEF66
:10F01000FA2EAFEF0A2FAFEF1A2F6E0C7F1C801E57
:10F02000911E142D032DF22CEE24EA0CFB1C0C1D5A
:10F030001D1D0F940DF220E22093C6008091C000A8
:10F0400086FFFCCF8091C00080648093C000C65DC5
:10F05000DE4F8881CA52D1400F940DF230E23093D6
:10F06000C6008091C00086FFFCCF8091C000806404
:10F070008093C000C45DDE4F8881CC52D1400F9494
:10F080000DF240E24093C6008091C00086FFFCCFA5
:10F090008091C00080648093C000C55DDE4F888190
:10F0A000CB52D1400F940DF250E25093C6008091A4
:10F0B000C00086FFFCCF8091C00080648093C000B8
:10F0C0008FEFE8168FEFF80680E0080780E018075A
:10F0D00031F484E092EE60E00F94C2F1DFC0D80119
:10F0E000C7018070907CA070B0708050904CA040A0
:10F0F000B040D1F52FEF3FE340E050E0E222F322B1
:10F1000004231523CA5DDE4FA880B980CA80DB8046
:10F11000C652D140AE0CBF1CC01ED11EAA0CBB1CD7
:10F12000CC1CDD1C8EE092EE60E00F94C2F1BB2798
:10F13000A12F902F8F2D0F940DF28E2D0F940DF285
:10F1400030E23093C6008091C00086FFFCCF8091F2
:10F15000C00080648093C0004EE34093C60080915D
:10F16000C00086FFFCCF87C08EE09EEFA0E0B0E03D
:10F17000E822F9220A231B239CE0E91694E9F90608
:10F1800090E0090790E0190709F088C0C45DDE4FE0
:10F19000A881CC52D140EA2EFF2400E010E0102FCD
:10F1A0000F2DFE2CEE24C55DDE4FB881CB52D14031
:10F1B000EB0EF11C011D111DD601C501817090706F
:10F1C000A070B070DC0199278827E80EF91E0A1F8D
:10F1D0001B1F20EF30E040E050E0A222B322C42207
:10F1E000D52241E1AA0CBB1CCC1CDD1C4A95D1F7F1
:10F1F000EA0CFB1C0C1D1D1D81E090E0A0E0B0E0BE
:10F20000282239224A225B2235E1220C331C441C7D
:10F21000551C3A95D1F7E20CF31C041D151D57013E
:10F220006801AA0CBB1CCC1CDD1C85E192EE60E0E1
:10F230000F94C2F1C801AA27BB270F940DF2BB2778
:10F24000A12F902F8F2D0F940DF28E2D0F940DF274
:10F2500090E29093C6008091C00086FFFCCF809121
:10F26000C00080648093C000AEE3A093C60080918C
:10F27000C00086FFFCCF8091C00080648093C000F6
:10F28000C601AA27BB270F940DF2BB27AD2D9C2DDD
:10F290008B2D0F940DF28A2D0F940DF20F94DCF14B
:10F2A000CC5DDE4FE881F981C452D140F99709F471
:10F2B0004DCBF4E0EF2EF12C012D112D6E0C7F1CA7
:10F2C000801E911EF2CD83E093EE62E00F94F5F183
:10F2D0008AE192EE60E00F94C2F18091C00087FF56
:10F2E000FCCF1091C6001F751093C6008091C0001E
:10F2F00086FFFCCF8091C00080648093C0000F9493
:10F30000DCF1812F81548A3108F036C1163409F4BA
:10F3100095C0173490F4133409F44EC0143430F40B
:10F320001134F1F0123409F01DC130C0143409F465
:10F3300059C0153409F016C16BC01A3409F4C4C0A1
:10F340001B3438F4173409F48FC0183409F00AC19B
:10F35000A1C01B3409F4D2C01C3409F003C1E8C0B9
:10F360008FEF81B90DC082B1809582B980E090E0C5
:10F37000E0EDF7E03197F1F70196883C9105C1F790
:10F380008091C00087FFEFCF12B8EFC08FEF84B934
:10F390000DC085B1809585B980E090E0E0EDF7E0A3
:10F3A0003197F1F70196883C9105C1F78091C00033
:10F3B00087FFEFCF15B8D9C08FEF87B90DC088B1DF
:10F3C000809588B980E090E0E0EDF7E03197F1F7C3
:10F3D0000196883C9105C1F78091C00087FFEFCF6F
:10F3E00018B8C3C08FEF8AB90DC08BB180958BB9A7
:10F3F00080E090E0E0EDF7E03197F1F70196883C8E
:10F400009105C1F78091C00087FFEFCF1BB8ADC059
:10F410008FEF8DB90DC08EB180958EB980E090E0F0
:10F42000E0EDF7E03197F1F70196883C9105C1F7DF
:10F430008091C00087FFEFCF1EB897C08FEF80BBD1
:10F440000DC081B3809581BB80E090E0E0EDF7E0F6
:10F450003197F1F70196883C9105C1F78091C00082
:10F4600087FFEFCF11BA81C08FEF83BB0DC084B38C
:10F47000809584BB80E090E0E0EDF7E03197F1F714
:10F480000196883C9105C1F78091C00087FFEFCFBE
:10F4900014BA6BC08FEF809301010FC080910201FD
:10F4A00080958093020180E090E0E0EDF7E03197F5
:10F4B000F1F70196883C9105C1F78091C00087FF64
:10F4C000EDCF1092020151C08FEF809304010FC065
:10F4D0008091050180958093050180E090E0E0ED4A
:10F4E000F7E03197F1F70196883C9105C1F78091DB
:10F4F000C00087FFEDCF1092050137C08FEF8093DA
:10F5000007010FC08091080180958093080180E079
:10F5100090E0E0EDF7E03197F1F70196883C910536
:10F52000C1F78091C00087FFEDCF109208011DC088
:10F530008FEF80930A010FC080910B01809580931B
:10F540000B0180E090E0E0EDF7E03197F1F70196F4
:10F55000883C9105C1F78091C00087FFEDCF1092E4
:10F560000B0103C085E292EEEEC98091C00087FFD7
:10F57000FCCF8091C600EAC988E392EEE4C98CE131
:10F5800091EEE1C988249924933011F1943028F444
:10F59000913089F09230B8F408C0953061F195301F
:10F5A000F0F0963009F048C043C02B3109F042C951
:10F5B00091E06BE13FC96227C15DDE4F2883CF52E6
:10F5C000D14092E037C9B22FA0E0622793E032C960
:10F5D000822F90E0A82BB92B622794E02BC92E3004
:10F5E00009F039C3622795E0C05DDE4F19821882A9
:10F5F000C053D1401FC9E1E0F0E0EC0FFD1FC05D3A
:10F60000DE4F08811981C053D140E00FF11F2083E4
:10F610000F5F1F4FC05DDE4F19830883C053D14079
:10F6200062270A171B0709F005C9D80196E002C92D
:10F63000261709F010C303C0973009F0FBC87724E0
:10F640009981933109F412C19431C8F4963009F4C8
:10F65000D8C0973050F4923009F406C1933009F4C1
:10F660006DC0913009F059C253C0913109F477C08F
:10F67000923108F0BBC0903109F04FC2F5C098310B
:10F6800009F487C0993150F4953109F4EFC09531F0
:10F6900008F4C6C1963109F040C2C2C19A3109F4DA
:10F6A0006CC09A3108F491C09B3109F45BC09D3164
:10F6B00009F033C29D81903359F48F81882311F46E
:10F6C0009EE11CC0813011F091E018C098E916C08D
:10F6D000892F807591F0903539F4E0E0F0E089E011
:10F6E0008093570094910AC0983539F4E3E0F0E034
:10F6F00089E080935700949101C090E01A821B82A8
:10F700008D818C831D829E831F8227E030E009C299
:10F710001A8288E08B8381E48C8386E58D8382E581
:10F720008E8389E48F8383E5888780E589878FE5E9
:10F730008A8782E38B872BE030E0F3C18A818139AD
:10F7400041F0823941F0803911F48FE005C080E04A
:10F7500003C082E001C08AE01A828B8344C0772410
:10F76000739482C08D81882311F48EE12CC0813086
:10F7700011F081E028C088E926C01A82E1E0F0E0BB
:10F7800089E08093570084918B831C8224E030E0D1
:10F79000C8C18B81803589F48C81883039F4E2E0EE
:10F7A000F0E089E08093570084910DC0E0E0F0E044
:10F7B00089E080935700849106C0E3E0F0E089E09F
:10F7C0008093570084911A82DFCF8D81836C99E0FA
:10F7D000E1E0F0E0082E90935700E89507B600FCB2
:10F7E000FDCF1A821B8223E030E09BC180EC8A832C
:10F7F000CE5CDE4F188219821A821B82C253D1401E
:10F800008EC18A8190E0A0E0B0E0582F44273327D2
:10F8100022278B8190E0A0E0B0E0DC0199278827C7
:10F82000282B392B4A2B5B2B8D8190E0A0E0B0E098
:10F83000282B392B4A2B5B2B8C8190E0A0E0B0E089
:10F84000BA2FA92F982F8827282B392B4A2B5B2BCF
:10F85000220F331F441F551FC05EDE4F288339839C
:10F860004A835B83C052D1401A8259C13A81C95C34
:10F87000DE4F3883C753D140CA5CDE4F1882C6536F
:10F88000D1408B81C82EDD24CA5CDE4F488159816E
:10F89000C653D140C42AD52A933109F082C0CE5C28
:10F8A000DE4F88819981AA81BB81C253D1408050AB
:10F8B000904CA340B04030F583E0CE5CDE4FE88052
:10F8C000F9800A811B81C253D140F70100935B008C
:10F8D00080935700E89507B600FCFDCFCE5CDE4F65
:10F8E000088119812A813B81C253D14000501F4FAA
:10F8F0002F4F3F4FCE5CDE4F088319832A833B8313
:10F90000C253D140C05EDE4F488159816A817B81FC
:10F91000C052D140DE011B9631E08C9111962C91A2
:10F9200011971296C75CDE4F2883C953D140C85C3B
:10F93000DE4F1882C853D14090E0C85CDE4FE881AA
:10F94000F981C853D1408E2B9F2B0C01FA01609393
:10F950005B0030935700E89511244E5F5F4F6F4F67
:10F960007F4F0EEFE02E0FEFF02ECE0CDF1CC114F8
:10F97000D10499F685E0C05EDE4F088119812A81A5
:10F980003B81C052D140F80120935B008093570027
:10F99000E89507B600FCFDCF81E180935700E8951C
:10F9A00035C0C05EDE4F88819981AA81BB81C0527B
:10F9B000D140B695A795979587957C018601ABE0D8
:10F9C000AA2EB12CAC0EBD1E0BC0D5016D915D01F0
:10F9D000C7010F947FFE0894E11CF11C01501040F8
:10F9E0000115110591F7A60160E070E0440F551F65
:10F9F000661F771FC05EDE4FE880F9800A811B8199
:10FA0000C052D1404E0D5F1D601F711F1A82C05E33
:10FA1000DE4F488359836A837B83C052D1407FC0C5
:10FA2000FA80C55CDE4FF882CB53D140C65CDE4F16
:10FA30001882CA53D1408B81C82EDD24C65CDE4FAC
:10FA400008811981CA53D140C02AD12A1A828981DA
:10FA5000BE016D5F7F4F843121F59601C05EDE4FA0
:10FA6000E880F9800A811B81C052D1400BBFF701A9
:10FA700087919691DB018C9311969C936E5F7F4FDB
:10FA8000D801C7010296A11DB11DC05EDE4F88835B
:10FA90009983AA83BB83C052D14022503040F1F6F3
:10FAA00036C0C05EDE4F288139814A815B81C052F9
:10FAB000D1400894C108D108760100E010E0089414
:10FAC000C11CD11C0894E11CF11C011D111DE20E8A
:10FAD000F31E041F151F21BDBB27A52F942F832FB5
:10FAE00082BD2F5F3F4F4F4F5F4FF89A80B5DB01CC
:10FAF0008D93BD012E153F054007510761F7C05E8C
:10FB0000DE4F288339834A835B83C052D1409601FC
:10FB10002D5F3F4FFB01108204C080EC8A8322E0FE
:10FB200030E08BE18093C6008091C00086FFFCCF5F
:10FB30008091C00080648093C000C15DDE4FF88179
:10FB4000CF52D140F093C6008091C00086FFFCCF19
:10FB50008091C00080648093C000432F3093C60022
:10FB60008091C00086FFFCCF8091C00080648093AC
:10FB7000C000922F2093C6008091C00086FFFCCF6A
:10FB80008091C00080648093C0008EE08093C600A6
:10FB90008091C00086FFFCCF8091C000806480937C
:10FBA000C00065E1C15DDE4FE880CF52D1406E25D7
:10FBB00069276427FE01319610C090819093C6009A
:10FBC0008091C00086FFFCCF31968091C000806498
:10FBD0008093C0006927215030402115310569F715
:10FBE0006093C6008091C00086FFFCCF8091C0006A
:10FBF00080648093C00085B1805885B9772081F4F6
:10FC0000C15DDE4F0881CF52D1400F5FC15DDE4F35
:10FC10000883CF52D14090E0A0E0B0E00D941AF4F8
:10FC200027982F9880E090E020ED37E0F901319798
:10FC3000F1F7019684369105C9F700008091C00064
:10FC40008D7F8093C00081E180935700E895EE2777
:10FC5000FF270994FFCF90E00D941AF497FB092E2B
:10FC600007260AD077FD04D02ED006D000201AF443
:10FC7000709561957F4F0895F6F7909581959F4F08
:10FC80000895A1E21A2EAA1BBB1BFD010DC0AA1FDD
:10FC9000BB1FEE1FFF1FA217B307E407F50720F0F5
:10FCA000A21BB30BE40BF50B661F771F881F991F70
:10FCB0001A9469F760957095809590959B01AC01B9
:10FCC000BD01CF010895AA1BBB1B51E107C0AA1FAC
:10FCD000BB1FA617B70710F0A61BB70B881F991FED
:10FCE0005A95A9F780959095BC01CD010895F99991
:10FCF000FECF92BD81BDF89A992780B50895262F31
:10FD0000F999FECF1FBA92BD81BD20BD0FB6F89400
:0EFD1000FA9AF99A0FBE01960895F894FFCF63
:00000001FF
