:100000000C9442010C9473010C9473010C947301D1
:100010000C9473010C9473010C9473010C94730190
:100020000C9473010C9473010C9473010C94730180
:100030000C9473010C94AB0A0C9473010C9473012F
:100040000C9473010C9473010C9473010C94730160
:100050000C9473010C9473010C9473010C946B0B4E
:100060000C9473010C94350B0C940B0B0C947301D2
:100070000C9473010C9473010C9473010C94730130
:100080000C9473010C9473010C9473010C94730120
:100090000C9473010C9473010C9473010C94730110
:1000A0000C9473010C9473010C9473010C94730100
:1000B0000C9473010C9473010C9473010C947301F0
:1000C0000C9473010C9473010C9473010C947301E0
:1000D0000C9473010C9473010C9473010C947301D0
:1000E0000C9473010C94E2020C94F0020C94F40250
:1000F0000C9407030C94C7020C94A2010C94DC022C
:100100000C94C5010C94A50A0C9450070C94FA02A7
:100110000C94B50B0C94BB060C9408030C940C03C4
:100120000C94D5020C94CD020C940B020C94750126
:100130000C9458070C94D1020C9458020C940203AE
:100140000C94FE020C94E6020C94D3010C94BA06B3
:100150000C94D9020C94EC020C9454070C94B10149
:1001600000002100240027002A002D003000330069
:1001700001010000040107010A0100002000230022
:10018000260029002C002F0032000001000003018E
:100190000601090100000A0B02090C0D0E080703F5
:1001A000040100000000000000000000000000004A
:1001B000000000000000000000000000000000003F
:1001C00012111000000000000000000000000000FC
:1001D00000000000000000000000010210202008C4
:1001E0000810204010204080020102010804020192
:1001F0000102040810204080804020100804020101
:100200008004020180402010080402010804020159
:1002100001020408102040800102040810204080E0
:1002200000002200250028002B002E0031003400A1
:1002300002010000050108010B0105050505070580
:1002400008080808020202020A0A08080404040452
:10025000010101010101010103030303030303037E
:10026000040707070C0C0C0C0C0C0C0C020202020D
:1002700006060606060606060B0B0B0B0B0B0B0BF6
:100280000200B50B11241FBECFEFD1E2DEBFCDBF00
:1002900000E00CBF13E0A0E0B2E0E8EFFEE100E018
:1002A0000BBF02C007900D92A431B107D9F724E02B
:1002B000A4E1B3E001C01D92A83DB207E1F711E04F
:1002C000C2E4D1E000E006C021970109802FFE01C1
:1002D0000E943C0FC134D10780E00807A9F70E94B3
:1002E000BA0C0C947A0F0C940000AF92BF92CF928C
:1002F000DF92EF92FF920F931F93CF93DF936C01E6
:100300007B018B01040F151FEB015E01AE18BF08C6
:10031000C017D10759F06991D601ED91FC91019078
:10032000F081E02DC6011995892B79F7C501DF9180
:10033000CF911F910F91FF90EF90DF90CF90BF90E2
:10034000AF900895FC01538D448D252F30E0842F0C
:1003500090E0821B930B541710F0CF9608950197ED
:100360000895FC01918D828D981761F0A28DAE0FDA
:10037000BF2FB11D5D968C91928D9F5F9F73928F61
:1003800090E008958FEF9FEF0895FC01918D828D8D
:10039000981731F0828DE80FF11D858D90E008955A
:1003A0008FEF9FEF0895FC01918D228D892F90E0B2
:1003B000805C9F4F821B91098F739927089585E474
:1003C00093E00E94D30121E0892B09F420E0822FE1
:1003D0000895FC01A48DA80FB92FB11DA35ABF4FDA
:1003E0002C91848D90E001968F739927848FA68934
:1003F000B7892C93A089B1898C91837080648C9388
:10040000938D848D981306C00288F389E02D808136
:100410008F7D80830895EF92FF920F931F93CF9368
:10042000DF93EC0181E0888F9B8D8C8D98131AC02F
:10043000E889F989808185FF15C09FB7F894EE8916
:10044000FF896083E889F989808183708064808373
:100450009FBF81E090E0DF91CF911F910F91FF90BE
:10046000EF900895F62E0B8D10E00F5F1F4F0F7366
:100470001127E02E8C8D8E110CC00FB607FCFACF21
:10048000E889F989808185FFF5CFCE010E94E901D5
:10049000F1CFEB8DEC0FFD2FF11DE35AFF4FF082F2
:1004A0009FB7F8940B8FEA89FB8980818062CFCF58
:1004B000CF93DF93EC01888D8823B9F0AA89BB899B
:1004C000E889F9898C9185FD03C0808186FD0DC086
:1004D0000FB607FCF7CF8C9185FFF2CF808185FFA7
:1004E000EDCFCE010E94E901E9CFDF91CF910895D0
:1004F00080E090E0892B29F00E94DF0181110E94A9
:10050000000080E090E0892B49F080E090E0892BAA
:1005100029F00E94000081110E94000080E090E01C
:10052000892B49F080E090E0892B29F00E9400009F
:1005300081110E94000080E090E0892B49F080E06A
:1005400090E0892B29F00E94000081110C9400009A
:1005500008958150823108F05AC0E82FF0E08827D2
:10056000EB54FD4F8F4F0C943C0FD502D902C702BC
:10057000CD02D1020703DC02E202E602EC02F00245
:10058000F402FA02FE020703020308030C0380913F
:1005900080008F77809380000895809180008F7D08
:1005A000F9CF80918000877FF5CF84B58F7784BDA8
:1005B000089584B58F7DFBCF8091B0008F778093B5
:1005C000B00008958091B0008F7DF9CF80919000A8
:1005D0008F77809390000895809190008F7DF9CF60
:1005E00080919000877FF5CF8091A0008F778093D6
:1005F000A00008958091A0008F7DF9CF8091A00088
:10060000877FF5CF809120018F7780932001089517
:10061000809120018F7DF9CF80912001877FF5CFD8
:10062000CF93DF93282F30E0F901EC56FE4F8491F1
:10063000F901E652FE4FD491F901E65CFD4FC491F9
:10064000CC23A1F081110E94A902EC2FF0E0EE0F63
:10065000FF1FE658FE4FA591B491EC91ED2381E088
:1006600090E009F480E0DF91CF91089580E090E080
:10067000FACF1F93CF93DF93282F30E0F901EC5688
:10068000FE4F8491F901E652FE4FD491F901E65CE8
:10069000FD4FC491CC23A9F0162F81110E94A9020D
:1006A000EC2FF0E0EE0FFF1FE05EFD4FA591B4913F
:1006B0008FB7F894EC91111108C0D095DE23DC932C
:1006C0008FBFDF91CF911F910895DE2BF8CF9091CE
:1006D000040289130DC0E0E8F2E0E4919FEF9093EB
:1006E0000402E230E1F038F4EE2381F0E13089F0E9
:1006F00060E00C943903E43049F110F1E530C1F7C2
:10070000909173009D7F90937300F2CF10926E00D2
:10071000EFCF90916F009D7F90936F00E9CF909104
:1007200070009D7F9093700091E09093B000909145
:10073000B100987F94609093B1001092B300D8CF2D
:10074000909171009D7F90937100D2CF9091720033
:100750009D7F90937200CCCFCF93DF9390E0FC010C
:10076000E652FE4F2491865C9D4FFC0184918823C4
:10077000C9F090E0880F991FFC01E05AFE4FA59147
:10078000B491FC01E05EFD4FC591D49161110DC0A3
:100790009FB7F8948C91209582238C93888128238D
:1007A00028839FBFDF91CF910895623051F49FB7A6
:1007B000F8943C91822F809583238C93E8812E2B93
:1007C000EFCF8FB7F894EC912E2B2C938FBFEACFFD
:1007D0008F929F92AF92BF92CF92DF92EF92FF9251
:1007E000CF936C01809104028D3269F08F3F09F440
:1007F00077C0CF91FF90EF90DF90CF90BF90AF90F8
:100800009F908F900895E0E8F2E0C491C7FDF1CF8A
:1008100061E08DE20E94AC03CC2319F0C23009F0F4
:10082000C8C1F12CE12C60E072E18AE790E0A701F9
:1008300096010E941D0F49015A01BA01A9014150B8
:100840005109610971094F3F51056105710509F0B1
:100850000CF494C160E472E48FE090E0A70196018B
:100860000E941D0FBA01A901415051096109710986
:10087000C23009F009C182E04F3F510561057105A1
:1008800009F00CF446C160E970ED83E090E0A70147
:1008900096010E941D0FBA01A90141505109610939
:1008A000710983E04F3F51056105710509F00CF4B2
:1008B00030C168E478EE81E090E0A70196010E94E3
:1008C0001D0FBA01A90141505109610971094F3F3A
:1008D00051056105710511F00CF02CC184E019C1BE
:1008E0008DE280930402E0E8F2E0C4918C2FCF3FC8
:1008F00009F47FCFC23009F468C060F4CC2379F1E9
:10090000C13009F444C087FD74CF61E08DE20E94DC
:10091000AC0384CFC43009F499C008F478C0C53062
:1009200091F710922001109221018091210188609D
:100930008093210180912101816080932101E7E66C
:10094000F2E0E491F0E0EE0FFF1FE05EFD4F8591D5
:100950009491E7E0F2E0E491E093250359CF14BCD1
:1009600015BC84B5826084BD85B5816085BDE7E630
:10097000F2E0E491F0E0EE0FFF1FE05EFD4F8591A5
:100980009491E7E0F2E0E491E0932C0341CF1092E0
:1009900080001092810080918100886080938100A6
:1009A00080918100816080938100E7E6F2E0E4912C
:1009B000F0E0EE0FFF1FE05EFD4F85919491E7E0C0
:1009C000F2E0E491E0932B0323CF1092B000109259
:1009D000B1008091B00082608093B0008091B1003E
:1009E00081608093B100E7E6F2E0E491F0E0EE0F81
:1009F000FF1FE05EFD4F8591949190932A038093B1
:100A00002903E7E0F2E0E491E093280301CF10929C
:100A100090001092910080919100886080939100E5
:100A200080919100816080939100E7E6F2E0E4918B
:100A3000F0E0EE0FFF1FE05EFD4F85919491E7E03F
:100A4000F2E0E491E0932703C3E0E2CE1092A0002D
:100A50001092A1008091A10088608093A1008091F4
:100A6000A10081608093A100E7E6F2E0E491F0E06C
:100A7000EE0FFF1FE05EFD4F85919491E7E0F2E0FD
:100A8000E491E0932603C4CE4F3F51056105710503
:100A900009F00CF48CC068E478EE81E090E0A701E6
:100AA00096010E941D0FBA01A90141505109610927
:100AB0007109CC2309F449C14F3F51056105710506
:100AC00009F00CF40BCF62E17AE780E090E0A70137
:100AD00096010E941D0FBA01A901415051096109F7
:100AE0007109CC2309F41AC186E04F3F5105610515
:100AF000710579F070F0B501A4019AE075956795DC
:100B0000579547959A95D1F7415051096109710957
:100B100087E09091B100987F892B8093B100C2301B
:100B200009F4E9C00CF0E0C0CC2379F1C13009F040
:100B300060CE6DC064E274EF80E090E0A7019601A2
:100B40000E941D0FBA01A9014150510961097109A3
:100B500085E04F3F510561057105D9F2D0F262E1A0
:100B60007AE780E090E0A70196010E941D0FBA018C
:100B7000A9014150510961097109B6CF81E0C11144
:100B8000C8CF95B5987F892B85BD47BD8FEF9FEF67
:100B9000DC018093410390934203A0934303B093FD
:100BA000440380916E00826080936E0022CE82E0CA
:100BB000E6CFF12CE12C60E072E18AE790E0A7013A
:100BC00096010E941D0FBA01A90141505109610906
:100BD000710991E04115510581E0680771057CF0CC
:100BE00068E478EE81E090E0A70196010E941D0F75
:100BF000BA01A901415051096109710993E0C1305D
:100C0000D9F480918100887F892B80938100509353
:100C10008900409388008FEF9FEFDC0180933D03B4
:100C200090933E03A0933F03B093400380916F00E5
:100C3000826080936F00DDCDC330D9F48091910044
:100C4000887F892B8093910050939900409398005E
:100C50008FEF9FEFDC018093350390933603A093D1
:100C60003703B093380380917100826080937100E4
:100C7000C0CDC430D9F48091A100887F892B8093A6
:100C8000A1005093A9004093A8008FEF9FEFDC01D3
:100C90008093310390933203A0933303B0933403D2
:100CA00080917200826080937200A3CDC53009F0FC
:100CB00036CF80912101887F892B80932101509329
:100CC0002901409328018FEF9FEFDC0180932D03D2
:100CD00090932E03A0932F03B09330038091730061
:100CE00082608093730085CDC43059F20CF4ACCF90
:100CF000C53029F37ECD4093B3008FEF9FEFDC0129
:100D00008093390390933A03A0933B03B0933C0341
:100D1000809170008260809370006BCD84E04F3FC3
:100D200051056105710509F008F42BCFB501A40147
:100D30008AE075956795579547958A95D1F7415003
:100D400051096109710985E01CCF83E04F3F5105CE
:100D50006105710509F00CF414CFB5CE2FB7F894E6
:100D60006091190370911A0380911B0390911C03E9
:100D70002FBF0895089590E080E00895CF93DF930A
:100D8000DC0126E0629FA00DB11D112490965C93BA
:100D90004E935F9721E091962C939197FC01E35934
:100DA000FF4F0190F081E02DEC01C459DF4F288105
:100DB000222341F0309719F0DC01662329F0DF91FE
:100DC000CF9108953097D9F35C968C91DF91CF91B4
:100DD0001994CF92DF92EF92FF920F931F93CF93CC
:100DE000DF93EC01162F042FFC0186E0689FE00DD5
:100DF000F11D112411A2878D90A18130910509F177
:100E000080F08230910509F443C0039709F445C08E
:100E1000DF91CF911F910F91FF90EF90DF90CF90D6
:100E200008954423A9F341E050E0CE010E94BE069C
:100E30000E94AE06C85ADF4F688379838A839B83FA
:100E4000E7CF0E94AE06FE01E85AFF4FC080D18076
:100E5000E280F380AB01BC014C195D096E097F098A
:100E6000729680819181B0E0A0E084179507A60773
:100E7000B70770F442E050E0612FCE01DF91CF91CF
:100E80001F910F91FF90EF90DF90CF900C94BE06D2
:100E900043E050E00111BCCFEFCF50E040E0ECCF99
:100EA000862F642F0C94AC03862F642F0C94390387
:100EB000862F0C9410032F923F924F925F926F9265
:100EC0007F928F929F92AF92BF92CF92DF92EF92DA
:100ED000FF920F931F93CF93DF93CDB7DEB72C977D
:100EE0000FB6F894DEBF0FBECDBF9C878B878459A9
:100EF0009F4F9A83898381E0A981BA818C930E9454
:100F0000AE06EB85FC85E45AFF4FFC83EB83008142
:100F1000118122813381AB01BC01401B510B620B5B
:100F2000730BEB85FC85E859FF4F80819181B0E020
:100F3000A0E084179507A607B70708F04FC110E097
:100F4000CB84DC84F6E6CF0ED11CEB84FC8422E655
:100F5000E20EF11CD6018C91181758F4D701ED91CF
:100F6000FC91E10FF11D62E080810E94AC031F5FE4
:100F7000F1CF312C4B845C84B7E64B0E511CEB84D3
:100F8000FC84E4E6EE0EF11C812C912C5401839438
:100F90002B853C852E593F4F3A872987D2018C916A
:100FA000381608F063C0032D10E0D701ED91FC91D5
:100FB000E00FF11F61E080810E94AC03D701ED9149
:100FC000FC91E00FF11F60E080810E943903D501A0
:100FD000C401032C04C0880F991FAA1FBB1F0A94C9
:100FE000D2F79E838D83FC01E095F095F887EF831F
:100FF000212CD6018C91281620F5622C712CA98504
:10100000BA85ED91FC91E60DF71D80810E941003D9
:10101000660C771CEB85FC85E60DF71D892B51F4DA
:10102000808591852D813E81822B932B91878087AE
:101030002394DFCF80859185AF81B8858A239B2358
:10104000F5CFD701ED91FC91E00FF11F61E08081B8
:101050000E943903F70180819181080F191F60E018
:10106000D8018C910E94AC03339498CF0B851C85DA
:10107000C801CC9678012FEF3FEFF701478D50A1C3
:10108000452B21F4148E368F258F11A2F6E0EF0E3A
:10109000F11CE816F90689F7A12C8B849C8420E6C4
:1010A000820E911C96E0392ED6018C91A81608F07C
:1010B00058C0B12C6A2C712CB4E06B0E711C660CFC
:1010C000771CEB85FC856E0E7F1ED2018C91B816C5
:1010D00008F045C0F301408151810B2C02C05695A8
:1010E00047950A94E2F7A89EC00111248B0D911D2B
:1010F000EB85FC8560E0258D368D8217930709F41A
:1011000072C06F5F36966A30B1F740FF26C0EB853C
:10111000FC8570E060E0248D211119C0D401ED91AF
:10112000FC91E80FF91F4081369EF001379EF00DCB
:1011300011242B853C85E20FF31F448F968F858FFA
:1011400010A2178E41E0C9010E94E90606C06F5F38
:101150007F4F36966A307105F1F6B394B6CFA394FB
:10116000A3CFD12CD80191968C918111D82E0A5FF2
:101170001F4FE016F106B1F70E94AE06EB81FC812D
:101180006083718382839383DD2041F1AB85BC85CD
:1011900091968C919197882309F15F968D919C91FE
:1011A00090970197D9F45C968C912C960FB6F89491
:1011B000DEBF0FBECDBFDF91CF911F910F91FF908A
:1011C000EF90DF90CF90BF90AF909F908F907F90E7
:1011D0006F905F904F903F902F900895E981FA8132
:1011E000108280E0E2CF41708B859C85ADCFCF939C
:1011F000DF938F3F980771F19C0197FF02C02D5F2D
:101200003F4F462F359527953595279564E070E03B
:101210000E94090F220F331FEC01CC0FDD1F442366
:1012200079F02E5B3D4F60E0F90180810E94390327
:10123000C65CDD4F61E08881DF91CF910C9439036A
:101240002E5A3D4F60E0F90180810E943903C65B50
:10125000DD4FF0CFDF91CF910895FB010190002089
:10126000E9F73197AF01461B570BDC01ED91FC917B
:101270000280F381E02D1994CF93DF93682F85E4EA
:1012800093E00E940B02EC0142E050E06CEC72E053
:1012900085E493E00E9475018C0F9D1FDF91CF9133
:1012A0000895CF93DF93EC0160E08E810E943903B3
:1012B00061E08E810E94390360E08E810E943903D3
:1012C0008BE891E00197F1F7DF91CF910895CF92EC
:1012D000DF92EF92FF920F931F93CF93DF936C01F6
:1012E0007C0187E0E80EF11CD0E0C0E0062F10E0A2
:1012F000B8010C2E02C0759567950A94E2F76170EB
:10130000F70181917F010E9439032196C430D105F4
:1013100079F7C601DF91CF911F910F91FF90EF9068
:10132000DF90CF900C945109CF92DF92EF92FF9211
:101330000F931F93CF93DF93EC01F62E642F8C81D4
:101340000E9439038D818F3F19F060E00E943903BC
:101350000F2D10E08F8584FF25C06E0187E0C80E39
:10136000D11CF12CE12CB8010E2C02C075956795AB
:101370000A94E2F76170F60181916F010E943903CE
:10138000FFEFEF1AFF0A88E0E816F10461F7CE01DB
:10139000DF91CF911F910F91FF90EF90DF90CF9051
:1013A0000C945109B80184E0759567958A95E1F729
:1013B000CE010E9467096F2DCE01DF91CF911F9161
:1013C0000F91FF90EF90DF90CF900C94670940E071
:1013D00061E080EC94E00E9494098BE39FE1019727
:1013E000F1F70895CF93DF93823029F49091CF04E1
:1013F00098609093CF048093D3041092D40480E437
:101400008093D50480E18093D60480E58093D7044F
:1014100061E08091C4040E94AC038091C5048F3FB9
:1014200019F061E00E94AC0361E08091C6040E9463
:10143000AC03C0ECD4E09E01205C34408091CF042A
:1014400084FD0BC084E090E021962817390744F40E
:1014500061E08E810E94AC03EECF88E090E0F4CF93
:101460008BE39DE00197F1F760E08091C4040E9456
:10147000390360E08091C6040E9439038091C5045D
:101480008F3F19F060E00E9439036091CF0464FD42
:101490003DC063E080EC94E00E946709CBE4D6E4B1
:1014A000CE010197F1F763E080EC94E00E946709B8
:1014B0002197F1F763E080EC94E00E94670983E5EF
:1014C00092E00197F1F762E080EC94E00E946709F6
:1014D0006091CF04606240E080EC94E00E94940947
:1014E00084E08093D00440E06CE080EC94E00E94C3
:1014F00094090E94E70982E08093D10440E066E00D
:1015000080EC94E0DF91CF910C949409606240E00C
:1015100080EC94E00E9494098BE496E40197F1F743
:101520006091CF04606240E080EC94E00E949409F6
:1015300083E592E00197F1F76091CF04606240E0AB
:1015400080EC94E00E949409C3CF41E00E9494098A
:1015500081E090E008951F920F920FB60F92112430
:101560000BB60F922F933F934F935F936F937F939D
:101570008F939F93AF93BF93EF93FF938091390322
:1015800090913A03A0913B03B0913C03892B8A2BA5
:101590008B2BE1F190912803E0912903F0912A032C
:1015A0008081892780838091390390913A03A091AB
:1015B0003B03B0913C03181619061A061B069CF44F
:1015C0008091390390913A03A0913B03B0913C0381
:1015D0000197A109B1098093390390933A03A0932D
:1015E0003B03B0933C03FF91EF91BF91AF919F916B
:1015F0008F917F916F915F914F913F912F910F90BC
:101600000BBE0F900FBE0F901F9018958091040293
:101610000E946703E8CF1F920F920FB60F9211241A
:101620000BB60F922F933F934F935F936F937F93DC
:101630008F939F93AF93BF93EF93FF9385E493E0D2
:101640000E94E901FF91EF91BF91AF919F918F911E
:101650007F916F915F914F913F912F910F900BBEB2
:101660000F900FBE0F901F9018951F920F920FB6FC
:101670000F9211240BB60F922F938F939F93EF939A
:10168000FF93E0915503F09156038081E0915B0355
:10169000F0915C0382FD1DC0908180915E038F5F9D
:1016A0008F7320915F03821741F0E0915E03F0E0B9
:1016B000EB5BFC4F958F80935E03FF91EF919F91C1
:1016C0008F912F910F900BBE0F900FBE0F901F9018
:1016D00018958081F2CF1F920F920FB60F921124AE
:1016E0002F933F938F939F93AF93BF938091190351
:1016F00090911A03A0911B03B0911C033091180321
:1017000023E0230F2D3758F50196A11DB11D20931D
:1017100018038093190390931A03A0931B03B093AB
:101720001C038091140390911503A0911603B091AE
:1017300017030196A11DB11D809314039093150307
:10174000A0931603B0931703BF91AF919F918F9110
:101750003F912F910F900FBE0F901F90189526E884
:10176000230F0296A11DB11DD2CF109248031092F3
:10177000470388EE93E0A0E0B0E0809349039093A4
:101780004A03A0934B03B0934C0388EA92E09093F2
:1017900046038093450385EC90E090935203809339
:1017A000510384EC90E0909354038093530380ECB6
:1017B00090E0909356038093550381EC90E09093D2
:1017C00058038093570382EC90E090935A038093E0
:1017D000590386EC90E090935C0380935B03109236
:1017E0005E0310925F0310926003109261031092E7
:1017F000C3041092C20484EC92E09093C1048093DD
:10180000C0048BE28093C4048FEF8093C50489E207
:101810008093C60487E28093C70485E28093C8045E
:1018200083E28093C90481E28093CA041092CB04BE
:101830001092CC041092CD041092CE041092CF04DA
:1018400081E00E94F2091092530410925704109202
:101850005604109258048AEB92E0909352048093BD
:101860005104EDE6F4E0108214821382158236965C
:1018700084E0E93AF807B9F786E292E09093B4047D
:101880008093B30482E292E09093B6048093B5040F
:1018900084E08093B7048093B8048AE292E0909346
:1018A000B2048093B1048AE090E09093BA048093EC
:1018B000B90484EF91E09093BC048093BB04109230
:1018C000BF041092BE041092AD041092AE041092A8
:1018D000AF041092B0041092BD041092E403109271
:1018E000E8031092E7031092E9038AEB92E09093E9
:1018F000E3038093E203EEEFF3E08AE394E01082E7
:1019000014821382158236968E179F07C1F789E0DD
:1019100092E0909345048093440485E092E0909394
:1019200047048093460485E08093480484E08093D4
:1019300049048EE092E090934304809342048AE04D
:1019400090E090934B0480934A0484EF91E090934D
:101950004D0480934C041092500410924F04109246
:101960003E0410923F0410924004109241041092E1
:101970004E040895789484B5826084BD84B58160F6
:1019800084BD85B5826085BD85B5816085BD80914A
:101990006E00816080936E001092810080918100C2
:1019A00082608093810080918100816080938100BA
:1019B000809180008160809380008091B10084607C
:1019C0008093B1008091B00081608093B0008091DD
:1019D000910082608093910080919100816080935A
:1019E0009100809190008160809390008091A1008F
:1019F00082608093A1008091A10081608093A1000A
:101A00008091A00081608093A0008091210182607C
:101A10008093210180912101816080932101809137
:101A2000200181608093200180917A0084608093FE
:101A30007A0080917A00826080937A0080917A00A7
:101A4000816080937A0080917A00806880937A0028
:101A50001092C10082E00E94F2096FEC72E080EC0B
:101A600094E00E942D09C2E4D2E00AE312E0E8808B
:101A7000229661E08E2D0E94AC03F801F0800E5F8B
:101A80001F4F61E08F2D0E94AC0360E08E2D0E94FD
:101A9000390361E08F2D0E943903F2E0CA34DF0779
:101AA00031F7C2E5D2E01881229661E0812F0E94D1
:101AB000AC0360E0812F0E94390322E0CC35D207CD
:101AC00091F7CAE4D2E0F2E5EF2EF2E0FF2E1881A2
:101AD000229661E0812F0E94AC0361E0812F0E9479
:101AE0003903EC16FD0699F761E08DE20E94AC0324
:101AF000E0915503F091560382E08083E091510319
:101B0000F09152031082E0915303F09154038FEC53
:101B1000808310925D03E0915903F0915A0386E0AF
:101B20008083E0915703F091580380818061808326
:101B3000E0915703F0915803808188608083E091A1
:101B40005703F0915803808180688083E0915703A8
:101B5000F091580380818F7D8083E4E0EE2EF12C9C
:101B60000FEF1FEF81E594E00E945B07C82E82EE25
:101B700093E00E945B07D82ECC20B1F065ED72E0B7
:101B800085E493E00E942D098C2D0E943C09D0E051
:101B9000C0E0FE01E65DFD4F8081C81609F4F5C086
:101BA0002196C031D105A9F7DD20B1F064EF72E0D4
:101BB00085E493E00E942D098D2D0E943C09D0E020
:101BC000C0E0FE01E25FFD4F8081D81609F4FFC03E
:101BD0002196C431D105A9F7C0910202D091030228
:101BE000CF3FDC07F1F00E94AE0680902103909079
:101BF0002203A0902303B0902403681979098A096D
:101C00009B09683873418105910558F061E0CE0168
:101C10000E94F7088DE20E9467031093030200936D
:101C20000202C0910002D0910102CF3FDC07F1F027
:101C30000E94AE0680901D0390901E03A0901F038B
:101C4000B0902003681979098A099B0968387341A3
:101C50008105910558F060E0CE010E94F7088DE201
:101C60000E94670310930102009300020E94780211
:101C700079CF80910002909101028F3F980751F037
:101C800060E00E94F7088DE20E9467031093010252
:101C90000093000261E0C5010E94F708D09303029F
:101CA000C0930202FE01F695E795F695E795EE0FD3
:101CB000FF1FEE5BFD4F61E080810E943903CE0182
:101CC000B7010E94090FFC01EE0FFF1FE65CFD4FFC
:101CD00060E080810E943903CC0FDD1FC45ADD4FC4
:101CE000888199810E94E8030E94AE0660932103D7
:101CF00070932203809323039093240359C080910F
:101D00000202909103028F3F980751F061E00E9418
:101D1000F7088DE20E94670310930302009302020A
:101D200060E0C5010E94F708D0930102C093000251
:101D3000FE01F695E795F695E795EE0FFF1FEE5A33
:101D4000FD4F61E080810E943903CE01B7010E94FE
:101D5000090FFC01EE0FFF1FE65BFD4F60E0808185
:101D60000E943903CC0FDD1FC458DD4F8881998153
:101D70000E94E8030E94AE0660931D0370931E0349
:101D800080931F039093200335C0A0900202B0906F
:101D90000302AC16BD0609F06CCF61E0CE010E94D3
:101DA000F7088DE20E94670310930302009302027A
:101DB0000E94E7096AEE72E080EC94E00E942D092F
:101DC00041E06C2D80EC94E00E949409EDCEA0904F
:101DD0000002B0900102CA15DB0509F090CF60E067
:101DE000CE010E94F7088DE20E9467031093010262
:101DF000009300020E94E70969E073E080EC94E040
:101E00000E942D0941E06D2D80EC94E00E94940920
:101E1000E3CE97FB072E16F4009407D077FD09D088
:101E20000E94440F07FC05D03EF4909581959F4F8A
:101E30000895709561957F4F0895052E97FB1EF4C8
:101E400000940E94340F57FD07D00E94580F07FCE2
:101E500003D04EF40C94340F509540953095219555
:101E60003F4F4F4F5F4F08959095809570956195C6
:101E70007F4F8F4F9F4F0895EE0FFF1F881F8BBF1F
:101E80000790F691E02D1994AA1BBB1B51E107C0E6
:101E9000AA1FBB1FA617B70710F0A61BB70B881FFA
:101EA000991F5A95A9F780959095BC01CD01089589
:101EB000A1E21A2EAA1BBB1BFD010DC0AA1FBB1F4E
:101EC000EE1FFF1FA217B307E407F50720F0A21BC0
:101ED000B30BE40BF50B661F771F881F991F1A942D
:101EE00069F760957095809590959B01AC01BD0157
:081EF000CF010895F894FFCF23
:101EF800FFFFFFFFFF363738393A3B3C3D3E484944
:101F08004A4B4C4D4E4F50515253545556575859B1
:101F18005A300D0C0B0A09080706313233343536AE
:101F28003738394142434445464705000400030019
:101F38000200170019001B001D003F00400041006F
:101F480042004300440045003500330006012601E5
:101F58004A015D018801B801EE010B024B029302B0
:101F6800BA0210037003DC031704970427057505EC
:101F78002006E006B8072D082D094D0AEA0A400C8C
:101F8800C00D6F0F5A105A129A14D4158018801B5E
:101F9800DE1EB420000000000B027501A2015802E9
:101FA800D301B101C50100000000500754075807CC
:101FB80000000000A50A7501BB06BA060D0A00520A
:101FC8006561647900347834204B657970616420E8
:101FD800707265737365643A2000347834204B65F9
:101FE800793A2000347835204B6579706164207027
:101FF8007265737365643A2000347835204B6579CF
:042008003A2000007A
:00000001FF
